:020000040000FA
:100000000C945D000C9485000C9485000C94850084
:100010000C9485000C9485000C9485000C9485004C
:100020000C9485000C9485000C9485000C9485003C
:100030000C9485000C9485000C9485000C9485002C
:100040000C9436040C9485000C9404040C94DE0388
:100050000C9485000C9485000C9485000C9485000C
:100060000C9485000C94850000000008000201003B
:100070000003040700000000000000000000000072
:10008000250028002B0000000000240027002A0083
:10009000040404040404040402020202020203032E
:1000A0000303030301020408102040800102040836
:1000B0001020010204081020800411241FBECFEF7D
:1000C000D8E0DEBFCDBF14E0A0E0B1E0E0EEFFE09D
:1000D00002C005900D92A837B107D9F725E0A8E72F
:1000E000B4E001C01D92AB3DB207E1F710E0CDE5F1
:1000F000D0E004C02197FE010E94E807CC35D1076B
:10010000C9F70E942F050C94EE070C94000090E0B4
:10011000FC01EC55FF4F249180579F4FFC018491C7
:10012000882399F090E0880F991FFC01EA57FF4F50
:10013000A591B491FC01E458FF4F859194918FB73C
:10014000F894EC91E22BEC938FBF0895AF92BF929D
:10015000CF92DF92EF92FF920F931F93CF93DF9393
:100160006C017B018B01040F151FEB015E01AE18C2
:10017000BF08C017D10759F06991D601ED91FC91E4
:100180000190F081E02DC6010995892B79F7C50111
:10019000DF91CF911F910F91FF90EF90DF90CF9063
:1001A000BF90AF900895FC01538D448D252F30E012
:1001B000842F90E0821B930B541710F0CF96089574
:1001C00001970895FC01918D828D981761F0A28DA1
:1001D000AE0FBF2FB11D5D968C91928D9F5F9F7367
:1001E000928F90E008958FEF9FEF0895FC01918D1D
:1001F000828D981731F0828DE80FF11D858D90E08A
:1002000008958FEF9FEF0895FC01918D228D892F26
:1002100090E0805C9F4F821B91098F73992708950E
:1002200086EE94E00E94040121E0892B09F420E08D
:10023000822F089580E090E0892B29F00E94100120
:1002400081110C9400000895FC01A48DA80FB92F12
:10025000B11DA35ABF4F2C91848D90E001968F73EE
:100260009927848FA689B7892C93A089B1898C910D
:10027000837080648C93938D848D981306C002885C
:10028000F389E02D80818F7D80830895EF92FF9226
:100290000F931F93CF93DF93EC0181E0888F9B8DA9
:1002A0008C8D98131AC0E889F989808185FF15C063
:1002B0009FB7F894EE89FF896083E889F989808186
:1002C0008370806480839FBF81E090E0DF91CF9155
:1002D0001F910F91FF90EF900895F62E0B8D10E077
:1002E0000F5F1F4F0F731127E02E8C8D8E110CC0E6
:1002F0000FB607FCFACFE889F989808185FFF5CF31
:10030000CE010E942401F1CFEB8DEC0FFD2FF11DEA
:10031000E35AFF4FF0829FB7F8940B8FEA89FB896D
:1003200080818062CFCFCF93DF93EC01888D8823CB
:10033000B9F0AA89BB89E889F9898C9185FD03C048
:10034000808186FD0DC00FB607FCF7CF8C9185FF2D
:10035000F2CF808185FFEDCFCE010E942401E9CF4D
:10036000DF91CF91089590E0FC01E859FF4F24916F
:10037000FC01EC55FF4F3491FC01E057FF4FE49135
:10038000EE23C9F0222339F0233001F1A8F4213003
:1003900019F1223029F1F0E0EE0FFF1FE458FF4F72
:1003A000A591B4918FB7F894EC91611126C0309566
:1003B0003E233C938FBF08952730A9F02830C9F021
:1003C000243049F7809180008F7D03C080918000A8
:1003D0008F7780938000DFCF84B58F7784BDDBCFAC
:1003E00084B58F7DFBCF8091B0008F778093B00074
:1003F000D2CF8091B0008F7DF9CF3E2BDACF2FB7CF
:10040000F89460917D0470917E0480917F049091B6
:1004100080042FBF0895CF92DF92EF92FF920F9347
:100420001F93CF93DF9323E0880F991F2A95E1F75D
:10043000DC01AA53BB4FFB018B01085F1F4FC12C8E
:10044000D12C7601C39490E080E0B701A601082E7C
:1004500004C0440F551F661F771F0A94D2F72C91D2
:10046000C081D0E0082E02C0D595C7950A94E2F766
:10047000C0FF14C0422B4C9301968830910529F798
:10048000119631960E171F07F1F6DF91CF911F914C
:100490000F91FF90EF90DF90CF9008954095422309
:1004A000EACF27E030E0261B370B41E050E002C0E6
:1004B000440F551F2A95E2F7BC01685F7F4FFC018E
:1004C0002191CF0130E024233523232B29F4E61793
:1004D000F707A9F781E0089580E008952F923F92F1
:1004E0004F925F926F927F928F929F92AF92BF9244
:1004F000CF92DF92EF92FF920F931F93CF93DF93F0
:10050000CDB7DEB72C970FB6F894DEBF0FBECDBFC8
:100510009E838D8320918304309184043A832983C0
:100520003B01D12CC12C812C912C54018394D301FB
:100530000D913D01002309F466C0C114D104B9F046
:10054000ED81FE813196FC83EB8338E0030280016C
:100550001124085E1F4FF12CE12CB701C8010E9445
:100560005102882349F04FEFE41AF40AF6CF2D81A7
:100570003E813C832B83E9CF8B819C819E838D833D
:1005800041E01701281A390A9C012E193F09D901A7
:100590001796BC83AB832801B8E04B0E511CED804D
:1005A000FE809701220D331D283031053CF5E9818D
:1005B000FA81EE16FF0604F5F7FE07C041E0970149
:1005C0002F5F3F4F3E832D83EACFE1E8F4E030E038
:1005D00020E0418952894130510541F48D819E814D
:1005E000883091054CF108979E838D833D962F5F4F
:1005F0003F4F2430310569F740E0E1CF3FEFC31AA8
:10060000D30A411194CF2C960FB6F894DEBF0FBEDB
:10061000CDBFDF91CF911F910F91FF90EF90DF90B1
:10062000CF90BF90AF909F908F907F906F905F9092
:100630004F903F902F9008956B817C816E197F09B8
:10064000CA0102C0880F991F6A95E2F7BC01E7E072
:10065000F0E0AD81BE81EA1BFB0BD501C40104C0F3
:10066000880F991FAA1FBB1FEA95D2F789879A871F
:10067000AB87BC875985482F4095D80183E0220F6E
:10068000331F8A95E1F7F901EA53FB4FF887EF83AF
:100690008D91EF81F8852191F887EF83298790E08C
:1006A000862397233197FE83ED83252B892B21F415
:1006B00029852423ED81FE8120834A165B0641F7BC
:1006C0007DCFCF92DF92EF92FF920F931F93CF9344
:1006D000DF9300D0CDB7DEB769834A83880F991FB7
:1006E0000091D9051091DA05000F111FE3E8F5E03C
:1006F0009F01235835402017310714F41192F8CF89
:100700002981FC01ED57FA4F21838A81808360E0C3
:100710008091D7050E94B3011016110604F501500F
:100720001109F801ED57FA4FE080D090D505C0903F
:10073000D30588E0F82E6E2D661F6627661F8C2D68
:100740000E94B301EE0C61E08D2D0E94B30160E0C8
:100750008D2D0E94B301FA94F110EDCFDDCF61E051
:100760008091D7050F900F90DF91CF911F910F913E
:10077000FF90EF90DF90CF900C94B301EF92FF9237
:100780000F931F93CF937C018C0183E0000F111F07
:100790008A95E1F70D561A4FC1E0F80111928F01C9
:1007A00040E06C2FC7010E946103CF5FC930A9F7F9
:1007B000CF911F910F91FF90EF9008951F920F928C
:1007C0000FB60F9211242F933F934F935F936F9324
:1007D0007F938F939F93AF93BF93EF93FF9386EE97
:1007E00094E00E942401FF91EF91BF91AF919F91FE
:1007F0008F917F916F915F914F913F912F910F90CA
:100800000FBE0F901F9018951F920F920FB60F9268
:1008100011242F938F939F93EF93FF93E091F6040E
:10082000F091F7048081E091FC04F091FD0482FDD9
:100830001BC090818091FF048F5F8F732091000512
:10084000821741F0E091FF04F0E0EA51FB4F958FF1
:100850008093FF04FF91EF919F918F912F910F90C3
:100860000FBE0F901F9018958081F4CF1F920F92AA
:100870000FB60F9211242F933F938F939F93AF93B3
:10088000BF9380917D0490917E04A0917F04B091EC
:10089000800430917C0423E0230F2D3758F5019616
:1008A000A11DB11D20937C0480937D0490937E0450
:1008B000A0937F04B0938004809178049091790490
:1008C000A0917A04B0917B040196A11DB11D809383
:1008D000780490937904A0937A04B0937B04BF9139
:1008E000AF919F918F913F912F910F900FBE0F90DD
:1008F0001F90189526E8230F0296A11DB11DD2CF97
:10090000CF93DF931092E9041092E80488EE93E00D
:10091000A0E0B0E08093EA049093EB04A093EC0491
:10092000B093ED0484E694E09093E7048093E604AA
:1009300085EC90E09093F3048093F20484EC90E0D3
:100940009093F5048093F40480EC90E09093F70486
:100950008093F60481EC90E09093F9048093F8047E
:1009600082EC90E09093FB048093FA0486EC90E094
:100970009093FD048093FC041092FF0410920005F4
:100980001092010510920205C2E0D0E0D093D40588
:10099000C093D30584E090E09093D6058093D5056D
:1009A00023E030E03093D8052093D7059093DA0503
:1009B0008093D90582E00E9487008091D5050E942E
:1009C00087008091D7050E94870061E08091D7055C
:1009D0000E94B301D093D405C093D305E3E9F5E0B9
:1009E000119285E0E33DF807D9F7D0E0C0E08091AF
:1009F000D9059091DA05C817D90774F540E06FE082
:100A0000CE010E9461038091D9059091DA05C81743
:100A1000D9072CF447E06BE0CE010E94610340E06F
:100A200069E0CE010E9461038091D9059091DA05B9
:100A3000C817D9071CF4CE010E94BE038091D905C6
:100A40009091DA05C817D9072CF440E06CE0CE018C
:100A50000E9461032196CBCFDF91CF9108957894C6
:100A600084B5826084BD84B5816084BD85B58260B3
:100A700085BD85B5816085BD80916E008160809364
:100A80006E001092810080918100826080938100CD
:100A900080918100816080938100809180008160DD
:100AA000809380008091B10084608093B100809138
:100AB000B00081608093B00080917A008460809360
:100AC0007A0080917A00826080937A0080917A0027
:100AD000816080937A0080917A00806880937A00A8
:100AE0001092C100E091F604F091F70482E0808357
:100AF000E091F204F091F3041082E091F404F0919B
:100B0000F5048FEC80831092FE04E091FA04F091DA
:100B1000FB0486E08083E091F804F091F904808181
:100B200080618083E091F804F091F904808188600D
:100B30008083E091F804F091F904808180688083DB
:100B4000E091F804F091F90480818F7D8083109208
:100B500082041092810482E794E090938A04809347
:100B6000890488EC90E09093910480939004D0E005
:100B7000C0E08091D9059091DA05C817D9072CF407
:100B800041E06CE0CE010E9461038091D905909113
:100B9000DA05C817D9072CF441E06AE0CE010E94BB
:100BA00061038091D9059091DA05C817D9071CF423
:100BB000CE010E94BE032196C430D105D1F681E05A
:100BC00090E090939304809392049093A004809378
:100BD0009F049093AD048093AC049093BA048093E7
:100BE000B9041092840410928304E1E88E2EE4E0AC
:100BF0009E2ED0E0C0E07724739402E010E0FEEE79
:100C0000EF2EF2E0FF2EA8E0CA2ED12CB2E3AB2EDD
:100C1000B12CF401818992898430910509F465C071
:100C200050F48230910511F1039709F073C0138AD3
:100C300068E071E01EC08530910509F45AC006973E
:100C400009F068C0738AD58AC48ACE01880F991FBB
:100C5000978B868BB18EA08E0E94FF01F401628F6C
:100C6000738F848F958F60E274E003C0138A60E114
:100C700071E0CE010E940B02F401818992890197F3
:100C800049F480918304909184040896909384049D
:100C900080938304FDE08F0E911C2196C430D10512
:100CA00009F0B7CF1092860410928504A0908904B1
:100CB000B0908A04EE24EA94FE2CF501C1915F0104
:100CC000CC2309F440C0F8E0CF02E0011124C85E53
:100CD000DF4F912C812CB401CE010E945102882358
:100CE000E1F08FEF881A980AF6CF138A60E071E07E
:100CF000C0CF738A158B048B178A168AF18EE08E0B
:100D00000E94FF01F401628F738F848F958F60E1E1
:100D100074E0AFCFF401138AAFCF84016801C81823
:100D2000D908083011054CF4B801CE010E945102D7
:100D3000811103C00F5F1F4FF1CF9FEFC91AD90A6E
:100D4000EC0CFD1CBACFF0928804E09287040E945C
:100D5000FF0160938B0470938C0480938D049093B7
:100D60008E042091870430918804809183049091AF
:100D7000840482179307D4F441E040938F04409198
:100D80008F0441111EC06091890470918A044091C2
:100D90008104509182044115510559F0821B930B37
:100DA0004230510561F090E080E009C010928F045C
:100DB000E6CF821B930B97FD0196959587950E9430
:100DC0006E0206EE14E040E0E42E40E0F42E29E945
:100DD000822E24E0922E33E8A32E35E0B32ED12CC0
:100DE000C12CC1E0D0E08091D9059091DA05C816F8
:100DF000D90674F4FE01EC5BFF4FE80DF91D40814C
:100E0000F501EC0FFD1F47876C2FC6010E9461039F
:100E10002196C930D10539F7E8E08E1A9108F8E03B
:100E2000AF0EB11CC60101966C0194E0C916D10445
:100E3000C1F6C1E8D4E0D12CC12C8B89882391F173
:100E4000A88CB98C0E94FF014A8C5B8C6C8C7D8CC9
:100E5000AB01BC014419550966097709C501BB0CF2
:100E6000AA0BBB0B481759076A077B07D8F00E94EB
:100E7000FF016A8F7B8F8C8F9D8F8E899F89019652
:100E80009F8B8E8B2C893D898217930714F01F8AC4
:100E90001E8A89899A898530910509F47BC0069755
:100EA00009F485C02D96F60131966F01F4E0CF1656
:100EB000D10419F680918F04882309F45FC0C09192
:100EC0009004D09191040E94FF0180908B04909037
:100ED0008C04A0908D04B0908E04AB01BC01481925
:100EE00059096A097B09CE01DD0FAA0BBB0B481714
:100EF00059076A077B0708F441C00E94FF0160930D
:100F00008B0470938C0480938D0490938E04E6EC94
:100F1000F4E0A1E8B4E051968D919C91529701972D
:100F200041F4108211821282138214821582168279
:100F300017821D9638960E171F0769F7609189046E
:100F400070918A0480918504909186040E946E02BB
:100F500020918504309186048091830490918404CB
:100F60004091870450918804840F951F019728179A
:100F700039073CF11092860410928504E114F104C3
:100F800009F425CF0E941001882309F420CF0E9484
:100F900000001DCF6E897F8993E0660F771F9A95B9
:100FA000E1F7605F7B4FC6010E940B027BCF6E8929
:100FB0007F8983E0660F771F8A95E1F7605E7B4F3C
:100FC000F2CF2F5F3F4F3093860420938504D6CF16
:100FD000EE0FFF1F0590F491E02D0994F894FFCFD8
:100FE000006666000081423C3C42A581A599423CD6
:100FF00066FFFFFF7E3C18000000000000000000BC
:101000000001010101000100000A0A0500000000C2
:10101000000A1F0A0A1F0A00040F140E051E04000E
:1010200000191A040B1300000814140815120D00FF
:10103000000101020000000001020202020202019E
:10104000020101010101010200000502050000008A
:10105000000004041F04040000000000010102005D
:101060000000000007000000000000000003030073
:101070000001020204040800000F090909090F0019
:101080000001030101010100000F010F08080F001A
:10109000000E010701010E00000909090F010100FE
:1010A000000F080F01010F00000F080F09090F00C2
:1010B000000F010204040400000F090F09090F00CA
:1010C000000F090F01010F000003030000030300DC
:1010D0000000010001010200000001020402010001
:1010E0000000000F000F00000000040201020400D5
:1010F000000E110102040004000E11171517100F45
:101100000E11111F111111001E11111E11111E00BF
:101110000E11101010110E001E11111111111E00D0
:101120000F08080E08080F000F08080E080808002E
:101130000E11101013110E001111111F11111100B9
:1011400007020202020207000702020212120C004A
:1011500009090A0C0A0909000808080808080F000C
:10116000111B151111111100111915151311110071
:101170000E11111111110E000E0909090E080800B7
:101180000E11111115130F00000E09090E090900A7
:101190000E11100E01110E001F04040404040400BB
:1011A0001111111111110E0011111111110A040068
:1011B00011111111151B110011110A040A1111004E
:1011C0001111110A040404001F01020408101F0079
:1011D00003020202020202030008040402020100E8
:1011E0000301010101010103040A110000000000D4
:1011F0000000000000000F000001010200000000DC
:1012000000000601070907000008080E09090E0082
:101210000000060908090600000101070909070086
:10122000000006090F0807000304040F040404006B
:10123000000007090907010E0808080E090909003E
:101240000000010001010100000100010101090687
:10125000000809090E090900000202020202010049
:101260000000001E151515000000000E09090900F8
:1012700000000609090906000000000E09090E0811
:10128000000000070909070100000006090808001E
:101290000000070806010E0004040F040404030004
:1012A00000000009090907000000000909090600FB
:1012B0000000001111150A000000090906090900C3
:1012C00000000009090701060000000F02040F00DA
:1012D00003040408040404030101010101010101E4
:1012E0000C0202010202020C00000019260000009C
:1012F0000066FFFF7E3C180066FFFFFFFF7E3C1884
:10130000514020242404115151514020242404111F
:10131000115151402024240404115151402024240F
:1013200024041151514020242424041151514020FF
:1013300020242404115151404020242404115151EF
:10134000000000004601A600D30093010401E20062
:08135000F60048656C6C6F00AB
:107E0000112484B714BE81FFF0D085E080938100F7
:107E100082E08093C00088E18093C10086E0809377
:107E2000C20080E18093C4008EE0C9D0259A86E02C
:107E300020E33CEF91E0309385002093840096BBD3
:107E4000B09BFECF1D9AA8958150A9F7CC24DD24C4
:107E500088248394B5E0AB2EA1E19A2EF3E0BF2EE7
:107E6000A2D0813461F49FD0082FAFD0023811F036
:107E7000013811F484E001C083E08DD089C08234E0
:107E800011F484E103C0853419F485E0A6D080C0E4
:107E9000853579F488D0E82EFF2485D0082F10E0AE
:107EA000102F00270E291F29000F111F8ED06801E7
:107EB0006FC0863521F484E090D080E0DECF843638
:107EC00009F040C070D06FD0082F6DD080E0C81688
:107ED00080E7D80618F4F601B7BEE895C0E0D1E017
:107EE00062D089930C17E1F7F0E0CF16F0E7DF06D8
:107EF00018F0F601B7BEE89568D007B600FCFDCFD4
:107F0000A601A0E0B1E02C9130E011968C91119780
:107F100090E0982F8827822B932B1296FA010C0160
:107F200087BEE89511244E5F5F4FF1E0A038BF0790
:107F300051F7F601A7BEE89507B600FCFDCF97BE46
:107F4000E89526C08437B1F42ED02DD0F82E2BD052
:107F50003CD0F601EF2C8F010F5F1F4F84911BD097
:107F6000EA94F801C1F70894C11CD11CFA94CF0C13
:107F7000D11C0EC0853739F428D08EE10CD085E9AC
:107F80000AD08FE07ACF813511F488E018D01DD067
:107F900080E101D065CF982F8091C00085FFFCCF94
:107FA0009093C60008958091C00087FFFCCF809118
:107FB000C00084FD01C0A8958091C6000895E0E648
:107FC000F0E098E1908380830895EDDF803219F02E
:107FD00088E0F5DFFFCF84E1DECF1F93182FE3DFCA
:107FE0001150E9F7F2DF1F91089580E0E8DFEE27F6
:047FF000FF270994CA
:027FFE00040479
:00000001FF
