:100000000C945D000C9485000C9485000C94850084
:100010000C9485000C9485000C9485000C9485004C
:100020000C9485000C9485000C9485000C9485003C
:100030000C9485000C9485000C9485000C9485002C
:100040000C94AF010C9485000C9485000C948500F1
:100050000C9485000C9485000C9485000C9485000C
:100060000C9485000C9485000000000024002700FB
:100070002A0000000000250028002B0004040404CE
:100080000404040402020202020203030303030342
:10009000010204081020408001020408102001021F
:1000A00004081020000000080002010000030407FB
:1000B0000000000000000000F70111241FBECFEF78
:1000C000D8E0DEBFCDBF13E0A0E0B1E0EEE8F6E09F
:1000D00002C005900D92A83FB107D9F724E0A8EF20
:1000E000B3E001C01D92A935B207E1F710E0CDE5FC
:1000F000D0E004C02197FE010E943803CC35D1071F
:10010000C9F70E945D020C9445030C940000CF9344
:10011000DF9300D000D0CDB7DEB73FB7F894809121
:10012000F8039091F903A091FA03B091FB0326B56F
:10013000A89B05C02F3F19F00196A11DB11D3FBF1F
:10014000BA2FA92F982F8827820F911DA11DB11DAD
:100150009C01AD0162E0220F331F441F551F6A95B9
:10016000D1F7CA01B9010F900F900F900F90DF9156
:10017000CF91089590E0FC01EC55FF4F2491FC01D4
:10018000E057FF4F3491FC01E458FF4FE491EE2318
:10019000D9F0222349F0243031F1B8F4223059F15A
:1001A0002330D9F0213019F1F0E0EE0FFF1FEE58A7
:1001B000FF4FA591B4919FB7F8948C91611124C021
:1001C000309538233C939FBF08952730B9F02830ED
:1001D00059F78091B0008F7D14C0809180008F7797
:1001E00080938000E1CF809180008F7DF9CF84B52E
:1001F0008F7784BDD9CF84B58F7DFBCF8091B00040
:100200008F778093B000D0CF832B8C93DCCF90E09E
:10021000FC01E057FF4F249184589F4FFC018491CB
:100220008823A1F090E0880F991FFC01E859FF4F47
:10023000A591B491FC01EE58FF4F859194918FB731
:10024000F8949C91E22FE92BEC938FBF0895CF9205
:10025000DF92EF92FF920F931F93CF93DF9300D023
:10026000CDB7DEB769834A837C01EE0CFF1C009199
:10027000570410915804000F111FA80117FF02C066
:1002800040E050E070E060E081E094E00E943E03D6
:100290008981F701EF5FFB4F81838A81808360E072
:1002A000809155040E94BA00101611067CF061E09E
:1002B000809155040F900F90DF91CF911F910F9176
:1002C000FF90EF90DF90CF900C94BA00015011098D
:1002D000F801EF5FFB4FE080D0905304C0905104D1
:1002E00088E0F82E6E2D661F6627661F8C2D0E94F3
:1002F000BA00EE0C61E08D2D0E94BA0060E08D2DF9
:100300000E94BA00FA94F110EDCFCECFEF92FF9297
:100310001F93CF93DF93EC01809157049091580481
:10032000C817D907B4F4CE0123E0880F991F2A9586
:10033000E1F79C012F5E3B4F790111E0F70111922B
:100340007F0140E0612FCE010E9427011F5F19301D
:10035000A9F7DF91CF911F91FF90EF9008951F9221
:100360001FB61F9211242F933F938F939F93AF93A8
:10037000BF938091FD039091FE03A091FF03B09184
:1003800000043091FC0323E0230F2D3750F5019634
:10039000A11DB11D2093FC038093FD039093FE03E8
:1003A000A093FF03B09300048091F8039091F903A8
:1003B000A091FA03B091FB030196A11DB11D80939A
:1003C000F8039093F903A093FA03B093FB03BF9152
:1003D000AF919F918F913F912F911F901FBE1F90C2
:1003E000189526E8230F0296A11DB11DD3CFCF93F8
:1003F000DF93C2E0D0E0D0935204C093510484E074
:1004000090E0909354048093530423E030E03093C1
:10041000560420935504909358048093570482E027
:100420000E940701809153040E94070180915504A6
:100430000E94070161E0809155040E94BA00D093A8
:100440005204C0935104E1E1F4E080E4DF011D9225
:100450008A95E9F7D0E0C0E0809157049091580464
:10046000C817D9071CF0DF91CF91089540E06FE0E5
:10047000CE010E9427018091570490915804C8171B
:10048000D9072CF447E06BE0CE010E94270140E041
:1004900069E0CE010E942701CE010E948601809171
:1004A000570490915804C817D9072CF440E06CE029
:1004B000CE010E9427012196CFCF00D000D0CDB72A
:1004C000DEB7789484B5826084BD84B5816084BDD4
:1004D00085B5826085BD85B5816085BD80916E00E2
:1004E000816080936E001092810080918100826013
:1004F0008093810080918100816080938100809150
:1005000080008160809380008091B100846080933E
:10051000B1008091B00081608093B00080917A003A
:10052000846080937A0080917A00826080937A0060
:1005300080917A00816080937A0080917A0080684F
:1005400080937A001092C10000E010E01A821982B4
:10055000809157049091580429813A8128173907CE
:100560009CF441E06CE0C9010E942701809157048E
:1005700090915804E981FA81E817F9072CF441E0D9
:100580006AE0CF010E94270189819A810E94860139
:1005900029813A812F5F3F4F3A83298324303105E7
:1005A000B9F6F12CE12C1A821982C70180529C4FB6
:1005B0004C01F701EF5FFB4F5F01DD24D394809185
:1005C00057049091580429813A812817390744F437
:1005D000F4014081F501408B6D2DC9010E94270176
:1005E000FFEF8F1A9F0A2FEFA21AB20AD39439E0B5
:1005F000D312E5CF89819A8101969A83898398E005
:10060000E90EF11CE981FA81339779F60E9487009F
:100610006B017C0188EE882E83E0982EA12CB12CF2
:100620000E94870069837A838B839C83DC01CB01E2
:100630008C199D09AE09BF09883E9340A105B105FB
:1006400078F3F1E08F1A9108A108B10828EEC20EE4
:1006500023E0D21EE11CF11C81149104A104B10419
:10066000F9F60115110509F471CF0E9400006ECF53
:10067000EE0FFF1F0590F491E02D0994DC0101C0FD
:0E0680006D9341505040E0F70895F894FFCF7D
:10068E000000000000000000000202020200020052
:10069E000014140A0000000000143E14143E14004E
:1006AE00081E281C0A3C08000032340816260000DA
:1006BE00102828102A241A0000040402000000004A
:1006CE0002040404040404020402020202020204EC
:1006DE0000000A040A0000000008083E0808000096
:1006EE0000000000020204000000000E00000000E6
:1006FE0000000000000606000002040408081000B6
:10070E00001E121212121E00000206020202020047
:10071E00001E021E10101E00001C020E02021C0003
:10072E00001212121E020200001E101E02021E00F5
:10073E00001E101E12121E00001E020408080800E1
:10074E00001E121E12121E00001E121E02021E009B
:10075E000006060000060600000002000202040069
:10076E0000000204080402000000001E001E00002B
:10077E000000080402040800001C220204080008FD
:10078E00001C222E2A2E201E1C22223E2222220055
:10079E003C22223C22223C001C22202020221C0033
:1007AE003C22222222223C001E10101C10101E0081
:1007BE000F08080E080808001C22202026221C0004
:1007CE002222223E222222000E04040404040E00E1
:1007DE000E04040424241800121214181412120009
:1007EE001010101010101E0022362A222222220073
:1007FE0022322A2A262222001C22222222221C00F7
:10080E001C1212121C1010001C2222222A261E005C
:10081E001C1212121C1212001C22201C02221C007E
:10082E003E080808080808002222222222221C0064
:10083E002222222222140800222222222A362200DA
:10084E002222140814222200222222140808080050
:10085E003E02040810203E000604040404040406AC
:10086E000010080804040200060202020202020638
:10087E0008142200000000000000000000001E000E
:10088E00000202040000000000000C020E120E0016
:10089E000010101C12121C0000000C1210120C0082
:1008AE000002020E12120E0000000C121E100E009C
:1008BE000608081E0808080000000E12120E021C80
:1008CE001010101C1212120000020002020202008E
:1008DE00000200020202120C001012121C12120070
:1008EE0000040404040402000000003C2A2A2A002A
:1008FE000000001C1212120000000C1212120C004A
:10090E000000001C12121C100000000E12120E022B
:10091E000000000C1210100000000E100C021C0043
:10092E0008081E08080806000000001212120E0029
:10093E000000001212120C0000000022222A1400E5
:10094E00000012120C12120000000012120E020C05
:10095E000000001E04081E000608081008080806FD
:10096E000202020202020202180404020404041823
:08097E00000000324C000000F3
:00000001FF
